{
  "contractName": "Project",
  "abi": [
    {
      "constant": true,
      "inputs": [],
      "name": "creator",
      "outputs": [
        {
          "name": "",
          "type": "address"
        }
      ],
      "payable": false,
      "stateMutability": "view",
      "type": "function"
    },
    {
      "constant": true,
      "inputs": [],
      "name": "amountGoal",
      "outputs": [
        {
          "name": "",
          "type": "uint256"
        }
      ],
      "payable": false,
      "stateMutability": "view",
      "type": "function"
    },
    {
      "constant": true,
      "inputs": [
        {
          "name": "",
          "type": "address"
        }
      ],
      "name": "contributions",
      "outputs": [
        {
          "name": "",
          "type": "uint256"
        }
      ],
      "payable": false,
      "stateMutability": "view",
      "type": "function"
    },
    {
      "constant": true,
      "inputs": [],
      "name": "title",
      "outputs": [
        {
          "name": "",
          "type": "string"
        }
      ],
      "payable": false,
      "stateMutability": "view",
      "type": "function"
    },
    {
      "constant": true,
      "inputs": [],
      "name": "state",
      "outputs": [
        {
          "name": "",
          "type": "uint8"
        }
      ],
      "payable": false,
      "stateMutability": "view",
      "type": "function"
    },
    {
      "constant": true,
      "inputs": [],
      "name": "currentBalance",
      "outputs": [
        {
          "name": "",
          "type": "uint256"
        }
      ],
      "payable": false,
      "stateMutability": "view",
      "type": "function"
    },
    {
      "inputs": [
        {
          "name": "projectStarter",
          "type": "address"
        },
        {
          "name": "projectTitle",
          "type": "string"
        },
        {
          "name": "goalAmount",
          "type": "uint256"
        }
      ],
      "payable": false,
      "stateMutability": "nonpayable",
      "type": "constructor"
    },
    {
      "anonymous": false,
      "inputs": [
        {
          "indexed": false,
          "name": "contributor",
          "type": "address"
        },
        {
          "indexed": false,
          "name": "amount",
          "type": "uint256"
        },
        {
          "indexed": false,
          "name": "currentTotal",
          "type": "uint256"
        }
      ],
      "name": "FundingReceived",
      "type": "event"
    },
    {
      "anonymous": false,
      "inputs": [
        {
          "indexed": false,
          "name": "recipient",
          "type": "address"
        }
      ],
      "name": "CreatorPaid",
      "type": "event"
    },
    {
      "constant": false,
      "inputs": [],
      "name": "contribute",
      "outputs": [],
      "payable": true,
      "stateMutability": "payable",
      "type": "function"
    },
    {
      "constant": false,
      "inputs": [],
      "name": "checkIfFundingCompleteOrExpired",
      "outputs": [],
      "payable": false,
      "stateMutability": "nonpayable",
      "type": "function"
    },
    {
      "constant": false,
      "inputs": [],
      "name": "getRefund",
      "outputs": [
        {
          "name": "",
          "type": "bool"
        }
      ],
      "payable": false,
      "stateMutability": "nonpayable",
      "type": "function"
    },
    {
      "constant": true,
      "inputs": [],
      "name": "getDetails",
      "outputs": [
        {
          "name": "projectStarter",
          "type": "address"
        },
        {
          "name": "projectTitle",
          "type": "string"
        },
        {
          "name": "currentState",
          "type": "uint8"
        },
        {
          "name": "currentAmount",
          "type": "uint256"
        },
        {
          "name": "goalAmount",
          "type": "uint256"
        }
      ],
      "payable": false,
      "stateMutability": "view",
      "type": "function"
    }
  ],
  "bytecode": "0x60806040526000600460006101000a81548160ff0219169083600281111561002357fe5b021790555034801561003457600080fd5b50604051610ce0380380610ce08339810180604052606081101561005757600080fd5b8101908080519060200190929190805164010000000081111561007957600080fd5b8281019050602081018481111561008f57600080fd5b81518560018202830111640100000000821117156100ac57600080fd5b505092919060200180519060200190929190505050826000806101000a81548173ffffffffffffffffffffffffffffffffffffffff021916908373ffffffffffffffffffffffffffffffffffffffff160217905550816003908051906020019061011792919061012f565b508060018190555060006002819055505050506101d4565b828054600181600116156101000203166002900490600052602060002090601f016020900481019282601f1061017057805160ff191683800117855561019e565b8280016001018555821561019e579182015b8281111561019d578251825591602001919060010190610182565b5b5090506101ab91906101af565b5090565b6101d191905b808211156101cd5760008160009055506001016101b5565b5090565b90565b610afd806101e36000396000f3fe6080604052600436106100915760003560e01c8063b2d5ae4411610059578063b2d5ae4414610224578063c19d93fb14610253578063ce845d1d1461028c578063d7bb99ba146102b7578063fbbf93a0146102c157610091565b806302d05d3f146100965780630785001c146100ed57806342e94c90146101185780634a79d50c1461017d57806386f325861461020d575b600080fd5b3480156100a257600080fd5b506100ab6103a7565b604051808273ffffffffffffffffffffffffffffffffffffffff1673ffffffffffffffffffffffffffffffffffffffff16815260200191505060405180910390f35b3480156100f957600080fd5b506101026103cc565b6040518082815260200191505060405180910390f35b34801561012457600080fd5b506101676004803603602081101561013b57600080fd5b81019080803573ffffffffffffffffffffffffffffffffffffffff1690602001909291905050506103d2565b6040518082815260200191505060405180910390f35b34801561018957600080fd5b506101926103ea565b6040518080602001828103825283818151815260200191508051906020019080838360005b838110156101d25780820151818401526020810190506101b7565b50505050905090810190601f1680156101ff5780820380516001836020036101000a031916815260200191505b509250505060405180910390f35b34801561021957600080fd5b50610222610488565b005b34801561023057600080fd5b506102396104c3565b604051808215151515815260200191505060405180910390f35b34801561025f57600080fd5b50610268610679565b6040518082600281111561027857fe5b60ff16815260200191505060405180910390f35b34801561029857600080fd5b506102a161068c565b6040518082815260200191505060405180910390f35b6102bf610692565b005b3480156102cd57600080fd5b506102d661084f565b604051808673ffffffffffffffffffffffffffffffffffffffff1673ffffffffffffffffffffffffffffffffffffffff1681526020018060200185600281111561031c57fe5b60ff168152602001848152602001838152602001828103825286818151815260200191508051906020019080838360005b8381101561036857808201518184015260208101905061034d565b50505050905090810190601f1680156103955780820380516001836020036101000a031916815260200191505b50965050505050505060405180910390f35b6000809054906101000a900473ffffffffffffffffffffffffffffffffffffffff1681565b60015481565b60056020528060005260406000206000915090505481565b60038054600181600116156101000203166002900480601f0160208091040260200160405190810160405280929190818152602001828054600181600116156101000203166002900480156104805780601f1061045557610100808354040283529160200191610480565b820191906000526020600020905b81548152906001019060200180831161046357829003601f168201915b505050505081565b600154600254106104c1576002600460006101000a81548160ff021916908360028111156104b257fe5b02179055506104bf61093c565b505b565b600060018060028111156104d357fe5b600460009054906101000a900460ff1660028111156104ee57fe5b146104f857600080fd5b6000600560003373ffffffffffffffffffffffffffffffffffffffff1673ffffffffffffffffffffffffffffffffffffffff168152602001908152602001600020541161054457600080fd5b6000600560003373ffffffffffffffffffffffffffffffffffffffff1673ffffffffffffffffffffffffffffffffffffffff1681526020019081526020016000205490506000600560003373ffffffffffffffffffffffffffffffffffffffff1673ffffffffffffffffffffffffffffffffffffffff168152602001908152602001600020819055503373ffffffffffffffffffffffffffffffffffffffff166108fc829081150290604051600060405180830381858888f193505050506106545780600560003373ffffffffffffffffffffffffffffffffffffffff1673ffffffffffffffffffffffffffffffffffffffff168152602001908152602001600020819055506000925050610675565b61066981600254610a9e90919063ffffffff16565b60028190555060019250505b5090565b600460009054906101000a900460ff1681565b60025481565b60008060028111156106a057fe5b600460009054906101000a900460ff1660028111156106bb57fe5b146106c557600080fd5b6000809054906101000a900473ffffffffffffffffffffffffffffffffffffffff1673ffffffffffffffffffffffffffffffffffffffff163373ffffffffffffffffffffffffffffffffffffffff16141561071f57600080fd5b61077134600560003373ffffffffffffffffffffffffffffffffffffffff1673ffffffffffffffffffffffffffffffffffffffff16815260200190815260200160002054610ab590919063ffffffff16565b600560003373ffffffffffffffffffffffffffffffffffffffff1673ffffffffffffffffffffffffffffffffffffffff168152602001908152602001600020819055506107c934600254610ab590919063ffffffff16565b6002819055507f5cdc4ab8d637538ead6cc1904d4160343656c8c82bd266635cfd31ac008fffe03334600254604051808473ffffffffffffffffffffffffffffffffffffffff1673ffffffffffffffffffffffffffffffffffffffff168152602001838152602001828152602001935050505060405180910390a161084c610488565b50565b6000606060008060008060009054906101000a900473ffffffffffffffffffffffffffffffffffffffff16945060038054600181600116156101000203166002900480601f0160208091040260200160405190810160405280929190818152602001828054600181600116156101000203166002900480156109125780601f106108e757610100808354040283529160200191610912565b820191906000526020600020905b8154815290600101906020018083116108f557829003601f168201915b50505050509350600460009054906101000a900460ff169250600254915060015490509091929394565b6000600280600281111561094c57fe5b600460009054906101000a900460ff16600281111561096757fe5b1461097157600080fd5b6000600254905060006002819055506000809054906101000a900473ffffffffffffffffffffffffffffffffffffffff1673ffffffffffffffffffffffffffffffffffffffff166108fc829081150290604051600060405180830381858888f1935050505015610a69577f2f256415efc8561af8db667cb242964b19be7380f379ccdafaa0e54a6f6b70696000809054906101000a900473ffffffffffffffffffffffffffffffffffffffff16604051808273ffffffffffffffffffffffffffffffffffffffff1673ffffffffffffffffffffffffffffffffffffffff16815260200191505060405180910390a16001925050610a9a565b806002819055506002600460006101000a81548160ff02191690836002811115610a8f57fe5b021790555060009250505b5090565b600082821115610aaa57fe5b818303905092915050565b600080828401905083811015610ac757fe5b809150509291505056fea165627a7a72305820598e980027c89ce24bd6740c625702c2f7958545030e34d394e5db191bea8d6d0029",
  "source": "// We will be using Solidity version 0.5.4\r\npragma solidity 0.5.8;\r\n// Importing OpenZeppelin's SafeMath Implementation\r\nimport \"installed_contracts/zeppelin/contracts/math/SafeMath.sol\";\r\n\r\n\r\ncontract PartyFunding {\r\n    using SafeMath for uint256;\r\n\r\n    // List of existing projects\r\n    Project[] private projects;\r\n\r\n    // Event that will be emitted whenever a new project is started\r\n    event ProjectStarted(\r\n        address contractAddress,\r\n        address projectStarter,\r\n        string projectTitle,\r\n        //string projectDesc,\r\n        //uint256 deadline,\r\n        uint256 goalAmount\r\n    );\r\n\r\n    /** @dev Function to start a new project.\r\n      * @param title Title of the project to be created\r\n      * \r\n      * \r\n      * @param amountToRaise Project goal in wei\r\n      */\r\n    function startProject(\r\n        string calldata title,\r\n        //string calldata description,\r\n        //uint durationInDays,\r\n        uint amountToRaise\r\n    ) external {\r\n        //uint raiseUntil = now.add(durationInDays.mul(1 days));\r\n        Project newProject = new Project(msg.sender, title, amountToRaise);\r\n        projects.push(newProject);\r\n        emit ProjectStarted(\r\n            address(newProject),\r\n            msg.sender,\r\n            title,\r\n            //description,\r\n            //raiseUntil,\r\n            amountToRaise\r\n        );\r\n    }                                                                                                                                   \r\n\r\n    /** @dev Function to get all projects' contract addresses.\r\n      * @return A list of all projects' contract addreses\r\n      */\r\n    function returnAllProjects() external view returns(Project[] memory){\r\n        return projects;\r\n    }\r\n}\r\n\r\n\r\ncontract Project {\r\n    using SafeMath for uint256;\r\n    \r\n    // Data structures\r\n    enum State {\r\n        Fundraising,\r\n        Expired,\r\n        Successful\r\n    }\r\n\r\n    // State variables\r\n    address payable public creator;\r\n    uint public amountGoal; // required to reach at least this much, else everyone gets refund\r\n    //uint public completeAt;\r\n    uint256 public currentBalance;\r\n    //uint public raiseBy;\r\n    string public title;\r\n    //string public description;\r\n    State public state = State.Fundraising; // initialize on create\r\n    mapping (address => uint) public contributions;\r\n\r\n    // Event that will be emitted whenever funding will be received\r\n    event FundingReceived(address contributor, uint amount, uint currentTotal);\r\n    // Event that will be emitted whenever the project starter has received the funds\r\n    event CreatorPaid(address recipient);\r\n\r\n    // Modifier to check current state\r\n    modifier inState(State _state) {\r\n        require(state == _state);\r\n        _;\r\n    }\r\n\r\n    // Modifier to check if the function caller is the project creator\r\n    modifier isCreator() {\r\n        require(msg.sender == creator);\r\n        _;\r\n    }\r\n\r\n    constructor\r\n    (\r\n        address payable projectStarter,\r\n        string memory projectTitle,\r\n        //string memory projectDesc,\r\n        //uint fundRaisingDeadline,\r\n        uint goalAmount\r\n    ) public {\r\n        creator = projectStarter;\r\n        title = projectTitle;\r\n        //description = projectDesc;\r\n        amountGoal = goalAmount;\r\n        //raiseBy = fundRaisingDeadline;\r\n        currentBalance = 0;\r\n    }\r\n\r\n    /** @dev Function to fund a certain project.\r\n      */\r\n    function contribute() external inState(State.Fundraising) payable {\r\n        require(msg.sender != creator);\r\n        contributions[msg.sender] = contributions[msg.sender].add(msg.value);\r\n        currentBalance = currentBalance.add(msg.value);\r\n        emit FundingReceived(msg.sender, msg.value, currentBalance);\r\n        checkIfFundingCompleteOrExpired();\r\n    }\r\n\r\n    /** @dev Function to change the project state depending on conditions.\r\n      */\r\n    function checkIfFundingCompleteOrExpired() public {\r\n        if (currentBalance >= amountGoal) {\r\n            state = State.Successful;\r\n            payOut();\r\n        }\r\n        //  else if (now > raiseBy)  {\r\n        //     state = State.Expired;\r\n        // }\r\n        // completeAt = now;\r\n    }\r\n\r\n    /** @dev Function to give the received funds to project starter.\r\n      */\r\n    function payOut() internal inState(State.Successful) returns (bool) {\r\n        uint256 totalRaised = currentBalance;\r\n        currentBalance = 0;\r\n\r\n        if (creator.send(totalRaised)) {\r\n            emit CreatorPaid(creator);\r\n            return true;\r\n        } else {\r\n            currentBalance = totalRaised;\r\n            state = State.Successful;\r\n        }\r\n\r\n        return false;\r\n    }\r\n\r\n    /** @dev Function to retrieve donated amount when a project expires.\r\n      */\r\n    function getRefund() public inState(State.Expired) returns (bool) {\r\n        require(contributions[msg.sender] > 0);\r\n\r\n        uint amountToRefund = contributions[msg.sender];\r\n        contributions[msg.sender] = 0;\r\n\r\n        if (!msg.sender.send(amountToRefund)) {\r\n            contributions[msg.sender] = amountToRefund;\r\n            return false;\r\n        } else {\r\n            currentBalance = currentBalance.sub(amountToRefund);\r\n        }\r\n\r\n        return true;\r\n    }\r\n\r\n    /** @dev Function to get specific information about the project.\r\n      * @return Returns all the project's details\r\n      */\r\n    function getDetails() public view returns \r\n    (\r\n        address payable projectStarter,\r\n        string memory projectTitle,\r\n        //string memory projectDesc,\r\n        //uint256 deadline,\r\n        State currentState,\r\n        uint256 currentAmount,\r\n        uint256 goalAmount\r\n    ) {\r\n        projectStarter = creator;\r\n        projectTitle = title;\r\n        //projectDesc = description;\r\n        //deadline = raiseBy;\r\n        currentState = state;\r\n        currentAmount = currentBalance;\r\n        goalAmount = amountGoal;\r\n    }\r\n}",
  "sourcePath": "D:/Coding/Blockchain/FundingIndia_BooleanPandits/contracts/PartyFunding.sol",
  "compiler": {
    "name": "solc",
    "version": "0.5.8+commit.23d335f2.Emscripten.clang"
  },
  "schemaVersion": "3.0.16",
  "updatedAt": "2019-11-16T09:42:21.507Z",
  "devdoc": {
    "methods": {
      "checkIfFundingCompleteOrExpired()": {
        "details": "Function to change the project state depending on conditions.\r"
      },
      "contribute()": {
        "details": "Function to fund a certain project.\r"
      },
      "getDetails()": {
        "details": "Function to get specific information about the project.\r",
        "return": "Returns all the project's details\r"
      },
      "getRefund()": {
        "details": "Function to retrieve donated amount when a project expires.\r"
      }
    }
  },
  "userdoc": {
    "methods": {}
  }
}